{"abi":[{"type":"constructor","inputs":[{"name":"_owner","type":"address","internalType":"address"}],"stateMutability":"nonpayable"},{"type":"function","name":"CLOCK_MODE","inputs":[],"outputs":[{"name":"","type":"string","internalType":"string"}],"stateMutability":"view"},{"type":"function","name":"approve","inputs":[{"name":"to","type":"address","internalType":"address"},{"name":"tokenId","type":"uint256","internalType":"uint256"}],"outputs":[],"stateMutability":"nonpayable"},{"type":"function","name":"balanceOf","inputs":[{"name":"owner","type":"address","internalType":"address"}],"outputs":[{"name":"","type":"uint256","internalType":"uint256"}],"stateMutability":"view"},{"type":"function","name":"clock","inputs":[],"outputs":[{"name":"","type":"uint48","internalType":"uint48"}],"stateMutability":"view"},{"type":"function","name":"delegate","inputs":[{"name":"delegatee","type":"address","internalType":"address"}],"outputs":[],"stateMutability":"nonpayable"},{"type":"function","name":"delegateBySig","inputs":[{"name":"delegatee","type":"address","internalType":"address"},{"name":"nonce","type":"uint256","internalType":"uint256"},{"name":"expiry","type":"uint256","internalType":"uint256"},{"name":"v","type":"uint8","internalType":"uint8"},{"name":"r","type":"bytes32","internalType":"bytes32"},{"name":"s","type":"bytes32","internalType":"bytes32"}],"outputs":[],"stateMutability":"nonpayable"},{"type":"function","name":"delegates","inputs":[{"name":"account","type":"address","internalType":"address"}],"outputs":[{"name":"","type":"address","internalType":"address"}],"stateMutability":"view"},{"type":"function","name":"eip712Domain","inputs":[],"outputs":[{"name":"fields","type":"bytes1","internalType":"bytes1"},{"name":"name","type":"string","internalType":"string"},{"name":"version","type":"string","internalType":"string"},{"name":"chainId","type":"uint256","internalType":"uint256"},{"name":"verifyingContract","type":"address","internalType":"address"},{"name":"salt","type":"bytes32","internalType":"bytes32"},{"name":"extensions","type":"uint256[]","internalType":"uint256[]"}],"stateMutability":"view"},{"type":"function","name":"getApproved","inputs":[{"name":"tokenId","type":"uint256","internalType":"uint256"}],"outputs":[{"name":"","type":"address","internalType":"address"}],"stateMutability":"view"},{"type":"function","name":"getPastTotalSupply","inputs":[{"name":"timepoint","type":"uint256","internalType":"uint256"}],"outputs":[{"name":"","type":"uint256","internalType":"uint256"}],"stateMutability":"view"},{"type":"function","name":"getPastVotes","inputs":[{"name":"account","type":"address","internalType":"address"},{"name":"timepoint","type":"uint256","internalType":"uint256"}],"outputs":[{"name":"","type":"uint256","internalType":"uint256"}],"stateMutability":"view"},{"type":"function","name":"getVotes","inputs":[{"name":"account","type":"address","internalType":"address"}],"outputs":[{"name":"","type":"uint256","internalType":"uint256"}],"stateMutability":"view"},{"type":"function","name":"isApprovedForAll","inputs":[{"name":"owner","type":"address","internalType":"address"},{"name":"operator","type":"address","internalType":"address"}],"outputs":[{"name":"","type":"bool","internalType":"bool"}],"stateMutability":"view"},{"type":"function","name":"name","inputs":[],"outputs":[{"name":"","type":"string","internalType":"string"}],"stateMutability":"view"},{"type":"function","name":"nonces","inputs":[{"name":"owner","type":"address","internalType":"address"}],"outputs":[{"name":"","type":"uint256","internalType":"uint256"}],"stateMutability":"view"},{"type":"function","name":"owner","inputs":[],"outputs":[{"name":"","type":"address","internalType":"address"}],"stateMutability":"view"},{"type":"function","name":"ownerOf","inputs":[{"name":"tokenId","type":"uint256","internalType":"uint256"}],"outputs":[{"name":"","type":"address","internalType":"address"}],"stateMutability":"view"},{"type":"function","name":"renounceOwnership","inputs":[],"outputs":[],"stateMutability":"nonpayable"},{"type":"function","name":"safeMint","inputs":[{"name":"to","type":"address","internalType":"address"},{"name":"uri","type":"string","internalType":"string"}],"outputs":[],"stateMutability":"nonpayable"},{"type":"function","name":"safeTransferFrom","inputs":[{"name":"from","type":"address","internalType":"address"},{"name":"to","type":"address","internalType":"address"},{"name":"tokenId","type":"uint256","internalType":"uint256"}],"outputs":[],"stateMutability":"nonpayable"},{"type":"function","name":"safeTransferFrom","inputs":[{"name":"from","type":"address","internalType":"address"},{"name":"to","type":"address","internalType":"address"},{"name":"tokenId","type":"uint256","internalType":"uint256"},{"name":"data","type":"bytes","internalType":"bytes"}],"outputs":[],"stateMutability":"nonpayable"},{"type":"function","name":"setApprovalForAll","inputs":[{"name":"operator","type":"address","internalType":"address"},{"name":"approved","type":"bool","internalType":"bool"}],"outputs":[],"stateMutability":"nonpayable"},{"type":"function","name":"supportsInterface","inputs":[{"name":"interfaceId","type":"bytes4","internalType":"bytes4"}],"outputs":[{"name":"","type":"bool","internalType":"bool"}],"stateMutability":"view"},{"type":"function","name":"symbol","inputs":[],"outputs":[{"name":"","type":"string","internalType":"string"}],"stateMutability":"view"},{"type":"function","name":"tokenByIndex","inputs":[{"name":"index","type":"uint256","internalType":"uint256"}],"outputs":[{"name":"","type":"uint256","internalType":"uint256"}],"stateMutability":"view"},{"type":"function","name":"tokenOfOwnerByIndex","inputs":[{"name":"owner","type":"address","internalType":"address"},{"name":"index","type":"uint256","internalType":"uint256"}],"outputs":[{"name":"","type":"uint256","internalType":"uint256"}],"stateMutability":"view"},{"type":"function","name":"tokenURI","inputs":[{"name":"tokenId","type":"uint256","internalType":"uint256"}],"outputs":[{"name":"","type":"string","internalType":"string"}],"stateMutability":"view"},{"type":"function","name":"totalSupply","inputs":[],"outputs":[{"name":"","type":"uint256","internalType":"uint256"}],"stateMutability":"view"},{"type":"function","name":"transferFrom","inputs":[{"name":"from","type":"address","internalType":"address"},{"name":"to","type":"address","internalType":"address"},{"name":"tokenId","type":"uint256","internalType":"uint256"}],"outputs":[],"stateMutability":"nonpayable"},{"type":"function","name":"transferOwnership","inputs":[{"name":"newOwner","type":"address","internalType":"address"}],"outputs":[],"stateMutability":"nonpayable"},{"type":"event","name":"Approval","inputs":[{"name":"owner","type":"address","indexed":true,"internalType":"address"},{"name":"approved","type":"address","indexed":true,"internalType":"address"},{"name":"tokenId","type":"uint256","indexed":true,"internalType":"uint256"}],"anonymous":false},{"type":"event","name":"ApprovalForAll","inputs":[{"name":"owner","type":"address","indexed":true,"internalType":"address"},{"name":"operator","type":"address","indexed":true,"internalType":"address"},{"name":"approved","type":"bool","indexed":false,"internalType":"bool"}],"anonymous":false},{"type":"event","name":"BatchMetadataUpdate","inputs":[{"name":"_fromTokenId","type":"uint256","indexed":false,"internalType":"uint256"},{"name":"_toTokenId","type":"uint256","indexed":false,"internalType":"uint256"}],"anonymous":false},{"type":"event","name":"DelegateChanged","inputs":[{"name":"delegator","type":"address","indexed":true,"internalType":"address"},{"name":"fromDelegate","type":"address","indexed":true,"internalType":"address"},{"name":"toDelegate","type":"address","indexed":true,"internalType":"address"}],"anonymous":false},{"type":"event","name":"DelegateVotesChanged","inputs":[{"name":"delegate","type":"address","indexed":true,"internalType":"address"},{"name":"previousVotes","type":"uint256","indexed":false,"internalType":"uint256"},{"name":"newVotes","type":"uint256","indexed":false,"internalType":"uint256"}],"anonymous":false},{"type":"event","name":"EIP712DomainChanged","inputs":[],"anonymous":false},{"type":"event","name":"MetadataUpdate","inputs":[{"name":"_tokenId","type":"uint256","indexed":false,"internalType":"uint256"}],"anonymous":false},{"type":"event","name":"OwnershipTransferred","inputs":[{"name":"previousOwner","type":"address","indexed":true,"internalType":"address"},{"name":"newOwner","type":"address","indexed":true,"internalType":"address"}],"anonymous":false},{"type":"event","name":"Transfer","inputs":[{"name":"from","type":"address","indexed":true,"internalType":"address"},{"name":"to","type":"address","indexed":true,"internalType":"address"},{"name":"tokenId","type":"uint256","indexed":true,"internalType":"uint256"}],"anonymous":false},{"type":"error","name":"CheckpointUnorderedInsertion","inputs":[]},{"type":"error","name":"ECDSAInvalidSignature","inputs":[]},{"type":"error","name":"ECDSAInvalidSignatureLength","inputs":[{"name":"length","type":"uint256","internalType":"uint256"}]},{"type":"error","name":"ECDSAInvalidSignatureS","inputs":[{"name":"s","type":"bytes32","internalType":"bytes32"}]},{"type":"error","name":"ERC5805FutureLookup","inputs":[{"name":"timepoint","type":"uint256","internalType":"uint256"},{"name":"clock","type":"uint48","internalType":"uint48"}]},{"type":"error","name":"ERC6372InconsistentClock","inputs":[]},{"type":"error","name":"ERC721EnumerableForbiddenBatchMint","inputs":[]},{"type":"error","name":"ERC721IncorrectOwner","inputs":[{"name":"sender","type":"address","internalType":"address"},{"name":"tokenId","type":"uint256","internalType":"uint256"},{"name":"owner","type":"address","internalType":"address"}]},{"type":"error","name":"ERC721InsufficientApproval","inputs":[{"name":"operator","type":"address","internalType":"address"},{"name":"tokenId","type":"uint256","internalType":"uint256"}]},{"type":"error","name":"ERC721InvalidApprover","inputs":[{"name":"approver","type":"address","internalType":"address"}]},{"type":"error","name":"ERC721InvalidOperator","inputs":[{"name":"operator","type":"address","internalType":"address"}]},{"type":"error","name":"ERC721InvalidOwner","inputs":[{"name":"owner","type":"address","internalType":"address"}]},{"type":"error","name":"ERC721InvalidReceiver","inputs":[{"name":"receiver","type":"address","internalType":"address"}]},{"type":"error","name":"ERC721InvalidSender","inputs":[{"name":"sender","type":"address","internalType":"address"}]},{"type":"error","name":"ERC721NonexistentToken","inputs":[{"name":"tokenId","type":"uint256","internalType":"uint256"}]},{"type":"error","name":"ERC721OutOfBoundsIndex","inputs":[{"name":"owner","type":"address","internalType":"address"},{"name":"index","type":"uint256","internalType":"uint256"}]},{"type":"error","name":"InvalidAccountNonce","inputs":[{"name":"account","type":"address","internalType":"address"},{"name":"currentNonce","type":"uint256","internalType":"uint256"}]},{"type":"error","name":"InvalidShortString","inputs":[]},{"type":"error","name":"OwnableInvalidOwner","inputs":[{"name":"owner","type":"address","internalType":"address"}]},{"type":"error","name":"OwnableUnauthorizedAccount","inputs":[{"name":"account","type":"address","internalType":"address"}]},{"type":"error","name":"SafeCastOverflowedUintDowncast","inputs":[{"name":"bits","type":"uint8","internalType":"uint8"},{"name":"value","type":"uint256","internalType":"uint256"}]},{"type":"error","name":"StringTooLong","inputs":[{"name":"str","type":"string","internalType":"string"}]},{"type":"error","name":"VotesExpiredSignature","inputs":[{"name":"expiry","type":"uint256","internalType":"uint256"}]}],"bytecode":{"object":"0x61016060405234801561001157600080fd5b50604051612fa0380380612fa083398101604081905261003091610284565b6040518060400160405280600d81526020016c15d85c9cd85dd09a5ad9539195609a1b815250604051806040016040528060018152602001603160f81b815250826040518060400160405280600d81526020016c15d85c9cd85dd09a5ad9539195609a1b815250604051806040016040528060038152602001622ba12760e91b81525081600090816100c29190610353565b5060016100cf8282610353565b5050506001600160a01b03811661010157604051631e4fbdf760e01b8152600060048201526024015b60405180910390fd5b61010a816101c1565b5061011682600c610213565b6101205261012581600d610213565b61014052815160208084019190912060e052815190820120610100524660a0526101b260e05161010051604080517f8b73c3c69bb8fe3d512ecc4cf759cc79239f7b179b0ffacaa9a75d522b39400f60208201529081019290925260608201524660808201523060a082015260009060c00160405160208183030381529060405280519060200120905090565b60805250503060c05250610483565b600b80546001600160a01b038381166001600160a01b0319831681179093556040519116919082907f8be0079c531659141344cd1fd0a4f28419497f9722a3daafe3b4186f6b6457e090600090a35050565b600060208351101561022f5761022883610246565b9050610240565b8161023a8482610353565b5060ff90505b92915050565b600080829050601f81511115610271578260405163305a27a960e01b81526004016100f89190610411565b805161027c8261045f565b179392505050565b60006020828403121561029657600080fd5b81516001600160a01b03811681146102ad57600080fd5b9392505050565b634e487b7160e01b600052604160045260246000fd5b600181811c908216806102de57607f821691505b6020821081036102fe57634e487b7160e01b600052602260045260246000fd5b50919050565b601f82111561034e57806000526020600020601f840160051c8101602085101561032b5750805b601f840160051c820191505b8181101561034b5760008155600101610337565b50505b505050565b81516001600160401b0381111561036c5761036c6102b4565b6103808161037a84546102ca565b84610304565b6020601f8211600181146103b4576000831561039c5750848201515b600019600385901b1c1916600184901b17845561034b565b600084815260208120601f198516915b828110156103e457878501518255602094850194600190920191016103c4565b50848210156104025786840151600019600387901b60f8161c191681555b50505050600190811b01905550565b602081526000825180602084015260005b8181101561043f5760208186018101516040868401015201610422565b506000604082850101526040601f19601f83011684010191505092915050565b805160208083015191908110156102fe5760001960209190910360031b1b16919050565b60805160a05160c05160e051610100516101205161014051612ac36104dd6000396000610d4101526000610d140152600061172e01526000611706015260006116610152600061168b015260006116b50152612ac36000f3fe608060405234801561001057600080fd5b50600436106101da5760003560e01c8063715018a6116101045780639ab24eb0116100a2578063c87b56dd11610071578063c87b56dd1461041d578063d204c45e14610430578063e985e9c514610443578063f2fde38b1461045657600080fd5b80639ab24eb0146103d1578063a22cb465146103e4578063b88d4fde146103f7578063c3cda5201461040a57600080fd5b80638da5cb5b116100de5780638da5cb5b146103865780638e539e8c1461039757806391ddadf4146103aa57806395d89b41146103c957600080fd5b8063715018a61461033a5780637ecebe001461034257806384b0196e1461036b57600080fd5b80633a46b1a81161017c578063587cde1e1161014b578063587cde1e146102d55780635c19a95c146103015780636352211e1461031457806370a082311461032757600080fd5b80633a46b1a81461029457806342842e0e146102a75780634bf5d7e9146102ba5780634f6ccce7146102c257600080fd5b8063095ea7b3116101b8578063095ea7b31461024757806318160ddd1461025c57806323b872dd1461026e5780632f745c591461028157600080fd5b806301ffc9a7146101df57806306fdde0314610207578063081812fc1461021c575b600080fd5b6101f26101ed3660046123ab565b610469565b60405190151581526020015b60405180910390f35b61020f61047a565b6040516101fe9190612418565b61022f61022a36600461242b565b61050c565b6040516001600160a01b0390911681526020016101fe565b61025a610255366004612460565b610535565b005b6008545b6040519081526020016101fe565b61025a61027c36600461248a565b610544565b61026061028f366004612460565b6105d4565b6102606102a2366004612460565b610639565b61025a6102b536600461248a565b6106ba565b61020f6106da565b6102606102d036600461242b565b610752565b61022f6102e33660046124c7565b6001600160a01b039081166000908152600f60205260409020541690565b61025a61030f3660046124c7565b6107ab565b61022f61032236600461242b565b6107b6565b6102606103353660046124c7565b6107c1565b61025a610809565b6102606103503660046124c7565b6001600160a01b03166000908152600e602052604090205490565b61037361081d565b6040516101fe97969594939291906124e2565b600b546001600160a01b031661022f565b6102606103a536600461242b565b610863565b6103b26108cd565b60405165ffffffffffff90911681526020016101fe565b61020f6108dc565b6102606103df3660046124c7565b6108eb565b61025a6103f236600461257a565b61091b565b61025a610405366004612646565b610926565b61025a6104183660046126c2565b61093d565b61020f61042b36600461242b565b6109fa565b61025a61043e366004612722565b610a05565b6101f2610451366004612784565b610a38565b61025a6104643660046124c7565b610a66565b600061047482610aa4565b92915050565b606060008054610489906127b7565b80601f01602080910402602001604051908101604052809291908181526020018280546104b5906127b7565b80156105025780601f106104d757610100808354040283529160200191610502565b820191906000526020600020905b8154815290600101906020018083116104e557829003601f168201915b5050505050905090565b600061051782610ac9565b506000828152600460205260409020546001600160a01b0316610474565b610540828233610b02565b5050565b6001600160a01b03821661057357604051633250574960e11b8152600060048201526024015b60405180910390fd5b6000610580838333610b0f565b9050836001600160a01b0316816001600160a01b0316146105ce576040516364283d7b60e01b81526001600160a01b038086166004830152602482018490528216604482015260640161056a565b50505050565b60006105df836107c1565b82106106105760405163295f44f760e21b81526001600160a01b03841660048201526024810183905260440161056a565b506001600160a01b03919091166000908152600660209081526040808320938352929052205490565b6000806106446108cd565b90508065ffffffffffff16831061067f57604051637669fc0f60e11b81526004810184905265ffffffffffff8216602482015260440161056a565b6106a961068b84610b24565b6001600160a01b038616600090815260106020526040902090610b5b565b6001600160d01b0316949350505050565b6106d583838360405180602001604052806000815250610926565b505050565b60606106e4610c11565b65ffffffffffff166106f46108cd565b65ffffffffffff161461071a576040516301bfc1c560e61b815260040160405180910390fd5b5060408051808201909152601d81527f6d6f64653d626c6f636b6e756d6265722666726f6d3d64656661756c74000000602082015290565b600061075d60085490565b82106107865760405163295f44f760e21b8152600060048201526024810183905260440161056a565b60088281548110610799576107996127f1565b90600052602060002001549050919050565b336105408183610c1c565b600061047482610ac9565b60006001600160a01b0382166107ed576040516322718ad960e21b81526000600482015260240161056a565b506001600160a01b031660009081526003602052604090205490565b610811610c8e565b61081b6000610cbb565b565b600060608060008060006060610831610d0d565b610839610d3a565b60408051600080825260208201909252600f60f81b9b939a50919850469750309650945092509050565b60008061086e6108cd565b90508065ffffffffffff1683106108a957604051637669fc0f60e11b81526004810184905265ffffffffffff8216602482015260440161056a565b6108bd6108b584610b24565b601190610b5b565b6001600160d01b03169392505050565b60006108d7610c11565b905090565b606060018054610489906127b7565b6001600160a01b038116600090815260106020526040812061090c90610d67565b6001600160d01b031692915050565b610540338383610da1565b610931848484610544565b6105ce84848484610e40565b8342111561096157604051632341d78760e11b81526004810185905260240161056a565b604080517fe48329057bfd03d55e49b547132e39cffd9c1820ad7b9d4c5307691425d15adf60208201526001600160a01b0388169181019190915260608101869052608081018590526000906109db906109d39060a00160405160208183030381529060405280519060200120610f69565b858585610f96565b90506109e78187610fc4565b6109f18188610c1c565b50505050505050565b606061047482611017565b610a0d610c8e565b6012805460009182610a1e8361281d565b919050559050610a2e8382611137565b6106d58183611151565b6001600160a01b03918216600090815260056020908152604080832093909416825291909152205460ff1690565b610a6e610c8e565b6001600160a01b038116610a9857604051631e4fbdf760e01b81526000600482015260240161056a565b610aa181610cbb565b50565b60006001600160e01b03198216632483248360e11b14806104745750610474826111a1565b6000818152600260205260408120546001600160a01b03168061047457604051637e27328960e01b81526004810184905260240161056a565b6106d583838360016111c6565b6000610b1c8484846112cc565b949350505050565b600065ffffffffffff821115610b57576040516306dfcc6560e41b8152603060048201526024810183905260440161056a565b5090565b815460009081816005811115610bba576000610b76846112e8565b610b809085612836565b60008881526020902090915081015465ffffffffffff9081169087161015610baa57809150610bb8565b610bb5816001612849565b92505b505b6000610bc8878785856113d0565b90508015610c0357610bed87610bdf600184612836565b600091825260209091200190565b54600160301b90046001600160d01b0316610c06565b60005b979650505050505050565b60006108d743610b24565b6001600160a01b038281166000818152600f602052604080822080548686166001600160a01b0319821681179092559151919094169392849290917f3134e8a2e6d97e929a7e54011ea5485d7d196dd5f0ba4d4ef95803e8e3fc257f9190a46106d58183610c8986611432565b61143d565b600b546001600160a01b0316331461081b5760405163118cdaa760e01b815233600482015260240161056a565b600b80546001600160a01b038381166001600160a01b0319831681179093556040519116919082907f8be0079c531659141344cd1fd0a4f28419497f9722a3daafe3b4186f6b6457e090600090a35050565b60606108d77f0000000000000000000000000000000000000000000000000000000000000000600c6115a9565b60606108d77f0000000000000000000000000000000000000000000000000000000000000000600d6115a9565b80546000908015610d9757610d8183610bdf600184612836565b54600160301b90046001600160d01b0316610d9a565b60005b9392505050565b6001600160a01b038216610dd357604051630b61174360e31b81526001600160a01b038316600482015260240161056a565b6001600160a01b03838116600081815260056020908152604080832094871680845294825291829020805460ff191686151590811790915591519182527f17307eab39ab6107e8899845ad3d59bd9653f200f220920489ca2b5937696c31910160405180910390a3505050565b6001600160a01b0383163b156105ce57604051630a85bd0160e11b81526001600160a01b0384169063150b7a0290610e8290339088908790879060040161285c565b6020604051808303816000875af1925050508015610ebd575060408051601f3d908101601f19168201909252610eba91810190612899565b60015b610f26573d808015610eeb576040519150601f19603f3d011682016040523d82523d6000602084013e610ef0565b606091505b508051600003610f1e57604051633250574960e11b81526001600160a01b038516600482015260240161056a565b805181602001fd5b6001600160e01b03198116630a85bd0160e11b14610f6257604051633250574960e11b81526001600160a01b038516600482015260240161056a565b5050505050565b6000610474610f76611654565b8360405161190160f01b8152600281019290925260228201526042902090565b600080600080610fa88888888861177f565b925092509250610fb8828261184e565b50909695505050505050565b6001600160a01b0382166000908152600e602052604090208054600181019091558181146106d5576040516301d4b62360e61b81526001600160a01b03841660048201526024810182905260440161056a565b606061102282610ac9565b506000828152600a60205260408120805461103c906127b7565b80601f0160208091040260200160405190810160405280929190818152602001828054611068906127b7565b80156110b55780601f1061108a576101008083540402835291602001916110b5565b820191906000526020600020905b81548152906001019060200180831161109857829003601f168201915b5050505050905060006110ea60408051808201909152600f81526e1b1a5b9ac81d1bc81d1a1948139195608a1b602082015290565b905080516000036110fc575092915050565b81511561112e5780826040516020016111169291906128b6565b60405160208183030381529060405292505050919050565b610b1c84611907565b610540828260405180602001604052806000815250611992565b6000828152600a60205260409020611169828261292c565b506040518281527ff8e1a15aba9398e019f0b49df1a4fde98ee17ae345cb5f6b5e2c27f5033e8ce79060200160405180910390a15050565b60006001600160e01b0319821663780e9d6360e01b14806104745750610474826119a9565b80806111da57506001600160a01b03821615155b1561129c5760006111ea84610ac9565b90506001600160a01b038316158015906112165750826001600160a01b0316816001600160a01b031614155b801561122957506112278184610a38565b155b156112525760405163a9fbf51f60e01b81526001600160a01b038416600482015260240161056a565b811561129a5783856001600160a01b0316826001600160a01b03167f8c5be1e5ebec7d5bd14f71427d1e84f3dd0314c0f7b2291e5b200ac8c7c3b92560405160405180910390a45b505b5050600090815260046020526040902080546001600160a01b0319166001600160a01b0392909216919091179055565b6000806112da8585856119f9565b9050610b1c81866001611ac6565b6000816000036112fa57506000919050565b6000600161130784611b3c565b901c6001901b90506001818481611320576113206129eb565b048201901c90506001818481611338576113386129eb565b048201901c90506001818481611350576113506129eb565b048201901c90506001818481611368576113686129eb565b048201901c90506001818481611380576113806129eb565b048201901c90506001818481611398576113986129eb565b048201901c905060018184816113b0576113b06129eb565b048201901c9050610d9a818285816113ca576113ca6129eb565b04611bd0565b60005b8183101561142a5760006113e78484611be6565b60008781526020902090915065ffffffffffff86169082015465ffffffffffff16111561141657809250611424565b611421816001612849565b93505b506113d3565b509392505050565b6000610474826107c1565b816001600160a01b0316836001600160a01b03161415801561145f5750600081115b156106d5576001600160a01b03831615611507576001600160a01b038316600090815260106020526040812081906114a290611c0161149d86611c0d565b611c41565b6001600160d01b031691506001600160d01b03169150846001600160a01b03167fdec2bacdd2f05b59de34da9b523dff8be42e5e38e818c82fdb0bae774387a72483836040516114fc929190918252602082015260400190565b60405180910390a250505b6001600160a01b038216156106d5576001600160a01b0382166000908152601060205260408120819061154090611c7a61149d86611c0d565b6001600160d01b031691506001600160d01b03169150836001600160a01b03167fdec2bacdd2f05b59de34da9b523dff8be42e5e38e818c82fdb0bae774387a724838360405161159a929190918252602082015260400190565b60405180910390a25050505050565b606060ff83146115c3576115bc83611c86565b9050610474565b8180546115cf906127b7565b80601f01602080910402602001604051908101604052809291908181526020018280546115fb906127b7565b80156116485780601f1061161d57610100808354040283529160200191611648565b820191906000526020600020905b81548152906001019060200180831161162b57829003601f168201915b50505050509050610474565b6000306001600160a01b037f0000000000000000000000000000000000000000000000000000000000000000161480156116ad57507f000000000000000000000000000000000000000000000000000000000000000046145b156116d757507f000000000000000000000000000000000000000000000000000000000000000090565b6108d7604080517f8b73c3c69bb8fe3d512ecc4cf759cc79239f7b179b0ffacaa9a75d522b39400f60208201527f0000000000000000000000000000000000000000000000000000000000000000918101919091527f000000000000000000000000000000000000000000000000000000000000000060608201524660808201523060a082015260009060c00160405160208183030381529060405280519060200120905090565b600080807f7fffffffffffffffffffffffffffffff5d576e7357a4501ddfe92f46681b20a08411156117ba5750600091506003905082611844565b604080516000808252602082018084528a905260ff891692820192909252606081018790526080810186905260019060a0016020604051602081039080840390855afa15801561180e573d6000803e3d6000fd5b5050604051601f1901519150506001600160a01b03811661183a57506000925060019150829050611844565b9250600091508190505b9450945094915050565b600082600381111561186257611862612a01565b0361186b575050565b600182600381111561187f5761187f612a01565b0361189d5760405163f645eedf60e01b815260040160405180910390fd5b60028260038111156118b1576118b1612a01565b036118d25760405163fce698f760e01b81526004810182905260240161056a565b60038260038111156118e6576118e6612a01565b03610540576040516335e2f38360e21b81526004810182905260240161056a565b606061191282610ac9565b50600061194160408051808201909152600f81526e1b1a5b9ac81d1bc81d1a1948139195608a1b602082015290565b905060008151116119615760405180602001604052806000815250610d9a565b8061196b84611cc5565b60405160200161197c9291906128b6565b6040516020818303038152906040529392505050565b61199c8383611d58565b6106d56000848484610e40565b60006001600160e01b031982166380ac58cd60e01b14806119da57506001600160e01b03198216635b5e139f60e01b145b8061047457506301ffc9a760e01b6001600160e01b0319831614610474565b600080611a07858585611dbd565b90506001600160a01b038116611a6457611a5f84600880546000838152600960205260408120829055600182018355919091527ff3f7a9fe364faab93b216da50a3214154f22a0a2b415b23a84c8169e8b636ee30155565b611a87565b846001600160a01b0316816001600160a01b031614611a8757611a878185611eb6565b6001600160a01b038516611aa357611a9e84611f47565b610b1c565b846001600160a01b0316816001600160a01b031614610b1c57610b1c8585611ff6565b6001600160a01b038316611ae857611ae56011611c7a61149d84611c0d565b50505b6001600160a01b038216611b0a57611b076011611c0161149d84611c0d565b50505b6001600160a01b038381166000908152600f60205260408082205485841683529120546106d59291821691168361143d565b600080608083901c15611b5157608092831c92015b604083901c15611b6357604092831c92015b602083901c15611b7557602092831c92015b601083901c15611b8757601092831c92015b600883901c15611b9957600892831c92015b600483901c15611bab57600492831c92015b600283901c15611bbd57600292831c92015b600183901c156104745760010192915050565b6000818310611bdf5781610d9a565b5090919050565b6000611bf56002848418612a17565b610d9a90848416612849565b6000610d9a8284612a39565b60006001600160d01b03821115610b57576040516306dfcc6560e41b815260d060048201526024810183905260440161056a565b600080611c6d611c4f6108cd565b611c65611c5b88610d67565b868863ffffffff16565b879190612046565b915091505b935093915050565b6000610d9a8284612a58565b60606000611c9383612054565b604080516020808252818301909252919250600091906020820181803683375050509182525060208101929092525090565b60606000611cd28361207c565b600101905060008167ffffffffffffffff811115611cf257611cf26125b6565b6040519080825280601f01601f191660200182016040528015611d1c576020820181803683370190505b5090508181016020015b600019016f181899199a1a9b1b9c1cb0b131b232b360811b600a86061a8153600a8504945084611d2657509392505050565b6001600160a01b038216611d8257604051633250574960e11b81526000600482015260240161056a565b6000611d9083836000610b0f565b90506001600160a01b038116156106d5576040516339e3563760e11b81526000600482015260240161056a565b6000828152600260205260408120546001600160a01b0390811690831615611dea57611dea818486612154565b6001600160a01b03811615611e2857611e076000856000806111c6565b6001600160a01b038116600090815260036020526040902080546000190190555b6001600160a01b03851615611e57576001600160a01b0385166000908152600360205260409020805460010190555b60008481526002602052604080822080546001600160a01b0319166001600160a01b0389811691821790925591518793918516917fddf252ad1be2c89b69c2b068fc378daa952ba7f163c4a11628f55a4df523b3ef91a4949350505050565b6000611ec1836107c1565b600083815260076020526040902054909150808214611f14576001600160a01b03841660009081526006602090815260408083208584528252808320548484528184208190558352600790915290208190555b5060009182526007602090815260408084208490556001600160a01b039094168352600681528383209183525290812055565b600854600090611f5990600190612836565b60008381526009602052604081205460088054939450909284908110611f8157611f816127f1565b906000526020600020015490508060088381548110611fa257611fa26127f1565b6000918252602080832090910192909255828152600990915260408082208490558582528120556008805480611fda57611fda612a77565b6001900381819060005260206000200160009055905550505050565b60006001612003846107c1565b61200d9190612836565b6001600160a01b039093166000908152600660209081526040808320868452825280832085905593825260079052919091209190915550565b600080611c6d8585856121b8565b600060ff8216601f81111561047457604051632cd44ac360e21b815260040160405180910390fd5b60008072184f03e93ff9f4daa797ed6e38ed64bf6a1f0160401b83106120bb5772184f03e93ff9f4daa797ed6e38ed64bf6a1f0160401b830492506040015b6d04ee2d6d415b85acef810000000083106120e7576d04ee2d6d415b85acef8100000000830492506020015b662386f26fc10000831061210557662386f26fc10000830492506010015b6305f5e100831061211d576305f5e100830492506008015b612710831061213157612710830492506004015b60648310612143576064830492506002015b600a83106104745760010192915050565b61215f838383612332565b6106d5576001600160a01b03831661218d57604051637e27328960e01b81526004810182905260240161056a565b60405163177e802f60e01b81526001600160a01b03831660048201526024810182905260440161056a565b8254600090819080156122d75760006121d687610bdf600185612836565b60408051808201909152905465ffffffffffff808216808452600160301b9092046001600160d01b03166020840152919250908716101561222a57604051632520601d60e01b815260040160405180910390fd5b805165ffffffffffff808816911603612276578461224d88610bdf600186612836565b80546001600160d01b0392909216600160301b0265ffffffffffff9092169190911790556122c7565b6040805180820190915265ffffffffffff80881682526001600160d01b0380881660208085019182528b54600181018d5560008d81529190912094519151909216600160301b029216919091179101555b602001519250839150611c729050565b50506040805180820190915265ffffffffffff80851682526001600160d01b0380851660208085019182528854600181018a5560008a815291822095519251909316600160301b029190931617920191909155905081611c72565b60006001600160a01b03831615801590610b1c5750826001600160a01b0316846001600160a01b0316148061236c575061236c8484610a38565b80610b1c5750506000908152600460205260409020546001600160a01b03908116911614919050565b6001600160e01b031981168114610aa157600080fd5b6000602082840312156123bd57600080fd5b8135610d9a81612395565b60005b838110156123e35781810151838201526020016123cb565b50506000910152565b600081518084526124048160208601602086016123c8565b601f01601f19169290920160200192915050565b602081526000610d9a60208301846123ec565b60006020828403121561243d57600080fd5b5035919050565b80356001600160a01b038116811461245b57600080fd5b919050565b6000806040838503121561247357600080fd5b61247c83612444565b946020939093013593505050565b60008060006060848603121561249f57600080fd5b6124a884612444565b92506124b660208501612444565b929592945050506040919091013590565b6000602082840312156124d957600080fd5b610d9a82612444565b60ff60f81b8816815260e06020820152600061250160e08301896123ec565b828103604084015261251381896123ec565b606084018890526001600160a01b038716608085015260a0840186905283810360c08501528451808252602080870193509091019060005b8181101561256957835183526020938401939092019160010161254b565b50909b9a5050505050505050505050565b6000806040838503121561258d57600080fd5b61259683612444565b9150602083013580151581146125ab57600080fd5b809150509250929050565b634e487b7160e01b600052604160045260246000fd5b60008067ffffffffffffffff8411156125e7576125e76125b6565b50604051601f19601f85018116603f0116810181811067ffffffffffffffff82111715612616576126166125b6565b60405283815290508082840185101561262e57600080fd5b83836020830137600060208583010152509392505050565b6000806000806080858703121561265c57600080fd5b61266585612444565b935061267360208601612444565b925060408501359150606085013567ffffffffffffffff81111561269657600080fd5b8501601f810187136126a757600080fd5b6126b6878235602084016125cc565b91505092959194509250565b60008060008060008060c087890312156126db57600080fd5b6126e487612444565b95506020870135945060408701359350606087013560ff8116811461270857600080fd5b9598949750929560808101359460a0909101359350915050565b6000806040838503121561273557600080fd5b61273e83612444565b9150602083013567ffffffffffffffff81111561275a57600080fd5b8301601f8101851361276b57600080fd5b61277a858235602084016125cc565b9150509250929050565b6000806040838503121561279757600080fd5b6127a083612444565b91506127ae60208401612444565b90509250929050565b600181811c908216806127cb57607f821691505b6020821081036127eb57634e487b7160e01b600052602260045260246000fd5b50919050565b634e487b7160e01b600052603260045260246000fd5b634e487b7160e01b600052601160045260246000fd5b60006001820161282f5761282f612807565b5060010190565b8181038181111561047457610474612807565b8082018082111561047457610474612807565b6001600160a01b038581168252841660208201526040810183905260806060820181905260009061288f908301846123ec565b9695505050505050565b6000602082840312156128ab57600080fd5b8151610d9a81612395565b600083516128c88184602088016123c8565b8351908301906128dc8183602088016123c8565b01949350505050565b601f8211156106d557806000526020600020601f840160051c8101602085101561290c5750805b601f840160051c820191505b81811015610f625760008155600101612918565b815167ffffffffffffffff811115612946576129466125b6565b61295a8161295484546127b7565b846128e5565b6020601f82116001811461298e57600083156129765750848201515b600019600385901b1c1916600184901b178455610f62565b600084815260208120601f198516915b828110156129be578785015182556020948501946001909201910161299e565b50848210156129dc5786840151600019600387901b60f8161c191681555b50505050600190811b01905550565b634e487b7160e01b600052601260045260246000fd5b634e487b7160e01b600052602160045260246000fd5b600082612a3457634e487b7160e01b600052601260045260246000fd5b500490565b6001600160d01b03828116828216039081111561047457610474612807565b6001600160d01b03818116838216019081111561047457610474612807565b634e487b7160e01b600052603160045260246000fdfea264697066735822122082dfc7c73c176ab74afe37cd3a1e772d5f0e49fb8dfccb25fe88fe03b57701b764736f6c634300081a0033","linkReferences":{}},"methodIdentifiers":{"CLOCK_MODE()":"4bf5d7e9","approve(address,uint256)":"095ea7b3","balanceOf(address)":"70a08231","clock()":"91ddadf4","delegate(address)":"5c19a95c","delegateBySig(address,uint256,uint256,uint8,bytes32,bytes32)":"c3cda520","delegates(address)":"587cde1e","eip712Domain()":"84b0196e","getApproved(uint256)":"081812fc","getPastTotalSupply(uint256)":"8e539e8c","getPastVotes(address,uint256)":"3a46b1a8","getVotes(address)":"9ab24eb0","isApprovedForAll(address,address)":"e985e9c5","name()":"06fdde03","nonces(address)":"7ecebe00","owner()":"8da5cb5b","ownerOf(uint256)":"6352211e","renounceOwnership()":"715018a6","safeMint(address,string)":"d204c45e","safeTransferFrom(address,address,uint256)":"42842e0e","safeTransferFrom(address,address,uint256,bytes)":"b88d4fde","setApprovalForAll(address,bool)":"a22cb465","supportsInterface(bytes4)":"01ffc9a7","symbol()":"95d89b41","tokenByIndex(uint256)":"4f6ccce7","tokenOfOwnerByIndex(address,uint256)":"2f745c59","tokenURI(uint256)":"c87b56dd","totalSupply()":"18160ddd","transferFrom(address,address,uint256)":"23b872dd","transferOwnership(address)":"f2fde38b"},"id":60}