{
  "abi": [
    {
      "type": "constructor",
      "inputs": [
        {
          "name": "_nftContract",
          "type": "address",
          "internalType": "address"
        },
        {
          "name": "_proposalDuration",
          "type": "uint256",
          "internalType": "uint256"
        }
      ],
      "stateMutability": "nonpayable"
    },
    {
      "type": "function",
      "name": "addWhitelist",
      "inputs": [
        {
          "name": "user",
          "type": "address",
          "internalType": "address"
        }
      ],
      "outputs": [],
      "stateMutability": "nonpayable"
    },
    {
      "type": "function",
      "name": "createProposal",
      "inputs": [
        {
          "name": "description",
          "type": "string",
          "internalType": "string"
        }
      ],
      "outputs": [],
      "stateMutability": "nonpayable"
    },
    {
      "type": "function",
      "name": "executeProposals",
      "inputs": [],
      "outputs": [],
      "stateMutability": "nonpayable"
    },
    {
      "type": "function",
      "name": "executionInterval",
      "inputs": [],
      "outputs": [
        {
          "name": "",
          "type": "uint256",
          "internalType": "uint256"
        }
      ],
      "stateMutability": "view"
    },
    {
      "type": "function",
      "name": "lastExecutionTime",
      "inputs": [],
      "outputs": [
        {
          "name": "",
          "type": "uint256",
          "internalType": "uint256"
        }
      ],
      "stateMutability": "view"
    },
    {
      "type": "function",
      "name": "nftContract",
      "inputs": [],
      "outputs": [
        {
          "name": "",
          "type": "address",
          "internalType": "contract IWarsawBikeNFT"
        }
      ],
      "stateMutability": "view"
    },
    {
      "type": "function",
      "name": "owner",
      "inputs": [],
      "outputs": [
        {
          "name": "",
          "type": "address",
          "internalType": "address"
        }
      ],
      "stateMutability": "view"
    },
    {
      "type": "function",
      "name": "proposalCount",
      "inputs": [],
      "outputs": [
        {
          "name": "",
          "type": "uint256",
          "internalType": "uint256"
        }
      ],
      "stateMutability": "view"
    },
    {
      "type": "function",
      "name": "proposalDuration",
      "inputs": [],
      "outputs": [
        {
          "name": "",
          "type": "uint256",
          "internalType": "uint256"
        }
      ],
      "stateMutability": "view"
    },
    {
      "type": "function",
      "name": "proposals",
      "inputs": [
        {
          "name": "",
          "type": "uint256",
          "internalType": "uint256"
        }
      ],
      "outputs": [
        {
          "name": "id",
          "type": "uint256",
          "internalType": "uint256"
        },
        {
          "name": "proposer",
          "type": "address",
          "internalType": "address"
        },
        {
          "name": "description",
          "type": "string",
          "internalType": "string"
        },
        {
          "name": "startBlock",
          "type": "uint256",
          "internalType": "uint256"
        },
        {
          "name": "endBlock",
          "type": "uint256",
          "internalType": "uint256"
        },
        {
          "name": "votes",
          "type": "uint256",
          "internalType": "uint256"
        },
        {
          "name": "totalVotes",
          "type": "uint256",
          "internalType": "uint256"
        },
        {
          "name": "executed",
          "type": "bool",
          "internalType": "bool"
        }
      ],
      "stateMutability": "view"
    },
    {
      "type": "function",
      "name": "removeWhitelist",
      "inputs": [
        {
          "name": "user",
          "type": "address",
          "internalType": "address"
        }
      ],
      "outputs": [],
      "stateMutability": "nonpayable"
    },
    {
      "type": "function",
      "name": "renounceOwnership",
      "inputs": [],
      "outputs": [],
      "stateMutability": "nonpayable"
    },
    {
      "type": "function",
      "name": "transferOwnership",
      "inputs": [
        {
          "name": "newOwner",
          "type": "address",
          "internalType": "address"
        }
      ],
      "outputs": [],
      "stateMutability": "nonpayable"
    },
    {
      "type": "function",
      "name": "vote",
      "inputs": [
        {
          "name": "proposalId",
          "type": "uint256",
          "internalType": "uint256"
        },
        {
          "name": "nftId",
          "type": "uint256",
          "internalType": "uint256"
        }
      ],
      "outputs": [],
      "stateMutability": "nonpayable"
    },
    {
      "type": "function",
      "name": "whitelist",
      "inputs": [
        {
          "name": "",
          "type": "address",
          "internalType": "address"
        }
      ],
      "outputs": [
        {
          "name": "",
          "type": "bool",
          "internalType": "bool"
        }
      ],
      "stateMutability": "view"
    },
    {
      "type": "event",
      "name": "OwnershipTransferred",
      "inputs": [
        {
          "name": "previousOwner",
          "type": "address",
          "indexed": true,
          "internalType": "address"
        },
        {
          "name": "newOwner",
          "type": "address",
          "indexed": true,
          "internalType": "address"
        }
      ],
      "anonymous": false
    },
    {
      "type": "event",
      "name": "ProposalCreated",
      "inputs": [
        {
          "name": "id",
          "type": "uint256",
          "indexed": false,
          "internalType": "uint256"
        },
        {
          "name": "proposer",
          "type": "address",
          "indexed": false,
          "internalType": "address"
        },
        {
          "name": "description",
          "type": "string",
          "indexed": false,
          "internalType": "string"
        }
      ],
      "anonymous": false
    },
    {
      "type": "event",
      "name": "ProposalDeclined",
      "inputs": [
        {
          "name": "id",
          "type": "uint256",
          "indexed": false,
          "internalType": "uint256"
        }
      ],
      "anonymous": false
    },
    {
      "type": "event",
      "name": "ProposalExecuted",
      "inputs": [
        {
          "name": "id",
          "type": "uint256",
          "indexed": false,
          "internalType": "uint256"
        }
      ],
      "anonymous": false
    },
    {
      "type": "event",
      "name": "Voted",
      "inputs": [
        {
          "name": "proposalId",
          "type": "uint256",
          "indexed": false,
          "internalType": "uint256"
        },
        {
          "name": "voter",
          "type": "address",
          "indexed": false,
          "internalType": "address"
        }
      ],
      "anonymous": false
    },
    {
      "type": "error",
      "name": "OwnableInvalidOwner",
      "inputs": [
        {
          "name": "owner",
          "type": "address",
          "internalType": "address"
        }
      ]
    },
    {
      "type": "error",
      "name": "OwnableUnauthorizedAccount",
      "inputs": [
        {
          "name": "account",
          "type": "address",
          "internalType": "address"
        }
      ]
    }
  ],
  "bytecode": {
    "object": "0x6080604052624f1a0060075534801561001757600080fd5b50604051610f61380380610f61833981016040819052610036916100e3565b338061005c57604051631e4fbdf760e01b81526000600482015260240160405180910390fd5b61006581610093565b50600380546001600160a01b0319166001600160a01b0393909316929092179091556002554260065561011d565b600080546001600160a01b038381166001600160a01b0319831681178455604051919092169283917f8be0079c531659141344cd1fd0a4f28419497f9722a3daafe3b4186f6b6457e09190a35050565b600080604083850312156100f657600080fd5b82516001600160a01b038116811461010d57600080fd5b6020939093015192949293505050565b610e358061012c6000396000f3fe608060405234801561001057600080fd5b50600436106100f55760003560e01c80638da5cb5b11610097578063d56d229d11610066578063d56d229d146101f6578063da35c66414610209578063f2fde38b14610212578063f80f5dd51461022557600080fd5b80638da5cb5b146101825780639761f8ce146101a75780639b19251a146101b0578063b384abef146101e357600080fd5b806349c2a1a6116100d357806349c2a1a61461014b578063715018a61461015e57806373b379bd1461016657806378c8cda71461016f57600080fd5b8063013cf08b146100fa578063135aaf7f1461012a5780633010996214610134575b600080fd5b61010d610108366004610a3e565b610238565b604051610121989796959493929190610a9d565b60405180910390f35b61013261030f565b005b61013d60025481565b604051908152602001610121565b610132610159366004610b0b565b610543565b610132610660565b61013d60065481565b61013261017d366004610bd9565b610674565b6000546001600160a01b03165b6040516001600160a01b039091168152602001610121565b61013d60075481565b6101d36101be366004610bd9565b60056020526000908152604090205460ff1681565b6040519015158152602001610121565b6101326101f1366004610bfd565b61069d565b60035461018f906001600160a01b031681565b61013d60015481565b610132610220366004610bd9565b610957565b610132610233366004610bd9565b610995565b60046020526000908152604090208054600182015460028301805492936001600160a01b039092169261026a90610c1f565b80601f016020809104026020016040519081016040528092919081815260200182805461029690610c1f565b80156102e35780601f106102b8576101008083540402835291602001916102e3565b820191906000526020600020905b8154815290600101906020018083116102c657829003601f168201915b505050600384015460048501546006860154600787015460089097015495969295919450925060ff1688565b60075460065461031f9190610c6f565b42101561037d5760405162461bcd60e51b815260206004820152602160248201527f457865637574696f6e20696e74657276616c20686173206e6f742070617373656044820152601960fa1b60648201526084015b60405180910390fd5b60008060008060005b600154811015610401576000818152600460205260409020600881015460ff161580156103b65750858160070154115b156103ce5760078101548154909695509392506103f8565b600881015460ff161580156103e65750848160070154115b156103f8576007810154815490955092505b50600101610386565b50831561045f5760008281526004602052604090819020600801805460ff19166001179055517f712ae1383f79ac853f8d882153778e0260ef8f03b504e2866e0593e04d2b291f906104569084815260200190565b60405180910390a15b82156104bc5760008181526004602052604090819020600801805460ff19166001179055517f712ae1383f79ac853f8d882153778e0260ef8f03b504e2866e0593e04d2b291f906104b39083815260200190565b60405180910390a15b60005b600154811015610538576000818152600460205260409020600881015460ff1661052f5760088101805460ff1916600117905580546040517f4cf2797951877f41b38931a68643f9249273f32fd396532213aa4f1222c9d16b916105269190815260200190565b60405180910390a15b506001016104bf565b505042600655505050565b3360009081526005602052604090205460ff166105ae5760405162461bcd60e51b815260206004820152602360248201527f4e6f742077686974656c697374656420746f206372656174652070726f706f73604482015262616c7360e81b6064820152608401610374565b60018054600091826105bf83610c88565b9091555060008181526004602052604090208181556001810180546001600160a01b03191633179055909150600281016105f98482610cf0565b50436003820181905560025461060e91610c6f565b600482015560088101805460ff191690556040517f7585f467599d0f008985f231af99293be388626ac16ca59505c2f8f88969cd639061065390849033908790610daf565b60405180910390a1505050565b6106686109c1565b61067260006109ee565b565b61067c6109c1565b6001600160a01b03166000908152600560205260409020805460ff19169055565b600082815260046020526040902054829081146106fc5760405162461bcd60e51b815260206004820152601760248201527f50726f706f73616c20646f6573206e6f742065786973740000000000000000006044820152606401610374565b6000838152600460205260409020600381015443101561075e5760405162461bcd60e51b815260206004820152601a60248201527f566f74696e6720686173206e6f742073746172746564207965740000000000006044820152606401610374565b80600401544311156107b25760405162461bcd60e51b815260206004820152601760248201527f566f74696e6720706572696f642068617320656e6465640000000000000000006044820152606401610374565b33600090815260058201602052604090205460ff161561080d5760405162461bcd60e51b8152602060048201526016602482015275165bdd481a185d9948185b1c9958591e481d9bdd195960521b6044820152606401610374565b6003546040516331a9108f60e11b81526004810185905233916001600160a01b031690636352211e90602401602060405180830381865afa158015610856573d6000803e3d6000fd5b505050506040513d601f19601f8201168201806040525081019061087a9190610de2565b6001600160a01b0316146108d05760405162461bcd60e51b815260206004820152601760248201527f596f7520646f206e6f74206f776e2074686973204e46540000000000000000006044820152606401610374565b60018160070160008282546108e59190610c6f565b909155505033600081815260058301602052604090819020805460ff19166001179055517f030b0f8dcd86a031eddb071f91882edeac8173663ba775713b677b42b51be44b91610949918791909182526001600160a01b0316602082015260400190565b60405180910390a150505050565b61095f6109c1565b6001600160a01b03811661098957604051631e4fbdf760e01b815260006004820152602401610374565b610992816109ee565b50565b61099d6109c1565b6001600160a01b03166000908152600560205260409020805460ff19166001179055565b6000546001600160a01b031633146106725760405163118cdaa760e01b8152336004820152602401610374565b600080546001600160a01b038381166001600160a01b0319831681178455604051919092169283917f8be0079c531659141344cd1fd0a4f28419497f9722a3daafe3b4186f6b6457e09190a35050565b600060208284031215610a5057600080fd5b5035919050565b6000815180845260005b81811015610a7d57602081850181015186830182015201610a61565b506000602082860101526020601f19601f83011685010191505092915050565b8881526001600160a01b038816602082015261010060408201819052600090610ac890830189610a57565b606083019790975250608081019490945260a084019290925260c0830152151560e0909101529392505050565b634e487b7160e01b600052604160045260246000fd5b600060208284031215610b1d57600080fd5b813567ffffffffffffffff811115610b3457600080fd5b8201601f81018413610b4557600080fd5b803567ffffffffffffffff811115610b5f57610b5f610af5565b604051601f8201601f19908116603f0116810167ffffffffffffffff81118282101715610b8e57610b8e610af5565b604052818152828201602001861015610ba657600080fd5b81602084016020830137600091810160200191909152949350505050565b6001600160a01b038116811461099257600080fd5b600060208284031215610beb57600080fd5b8135610bf681610bc4565b9392505050565b60008060408385031215610c1057600080fd5b50508035926020909101359150565b600181811c90821680610c3357607f821691505b602082108103610c5357634e487b7160e01b600052602260045260246000fd5b50919050565b634e487b7160e01b600052601160045260246000fd5b80820180821115610c8257610c82610c59565b92915050565b600060018201610c9a57610c9a610c59565b5060010190565b601f821115610ceb57806000526020600020601f840160051c81016020851015610cc85750805b601f840160051c820191505b81811015610ce85760008155600101610cd4565b50505b505050565b815167ffffffffffffffff811115610d0a57610d0a610af5565b610d1e81610d188454610c1f565b84610ca1565b6020601f821160018114610d525760008315610d3a5750848201515b600019600385901b1c1916600184901b178455610ce8565b600084815260208120601f198516915b82811015610d825787850151825560209485019460019092019101610d62565b5084821015610da05786840151600019600387901b60f8161c191681555b50505050600190811b01905550565b8381526001600160a01b0383166020820152606060408201819052600090610dd990830184610a57565b95945050505050565b600060208284031215610df457600080fd5b8151610bf681610bc456fea2646970667358221220ff1006a5b75b527e023ec2446dd865a9391eddbf32fdef4a6ebbdcea9c8550ea64736f6c634300081a0033",
    "linkReferences": {}
  },
  "methodIdentifiers": {
    "addWhitelist(address)": "f80f5dd5",
    "createProposal(string)": "49c2a1a6",
    "executeProposals()": "135aaf7f",
    "executionInterval()": "9761f8ce",
    "lastExecutionTime()": "73b379bd",
    "nftContract()": "d56d229d",
    "owner()": "8da5cb5b",
    "proposalCount()": "da35c664",
    "proposalDuration()": "30109962",
    "proposals(uint256)": "013cf08b",
    "removeWhitelist(address)": "78c8cda7",
    "renounceOwnership()": "715018a6",
    "transferOwnership(address)": "f2fde38b",
    "vote(uint256,uint256)": "b384abef",
    "whitelist(address)": "9b19251a"
  },
  "id": 59
}