{
  "abi": [
    {
      "type": "constructor",
      "inputs": [
        {
          "name": "_nftContract",
          "type": "address",
          "internalType": "address"
        }
      ],
      "stateMutability": "nonpayable"
    },
    {
      "type": "fallback",
      "stateMutability": "payable"
    },
    {
      "type": "receive",
      "stateMutability": "payable"
    },
    {
      "type": "function",
      "name": "addWhitelist",
      "inputs": [
        {
          "name": "user",
          "type": "address",
          "internalType": "address"
        }
      ],
      "outputs": [],
      "stateMutability": "nonpayable"
    },
    {
      "type": "function",
      "name": "createProposal",
      "inputs": [
        {
          "name": "description",
          "type": "string",
          "internalType": "string"
        },
        {
          "name": "requestedAmount",
          "type": "uint256",
          "internalType": "uint256"
        }
      ],
      "outputs": [],
      "stateMutability": "nonpayable"
    },
    {
      "type": "function",
      "name": "executeProposals",
      "inputs": [],
      "outputs": [],
      "stateMutability": "nonpayable"
    },
    {
      "type": "function",
      "name": "executionInterval",
      "inputs": [],
      "outputs": [
        {
          "name": "",
          "type": "uint256",
          "internalType": "uint256"
        }
      ],
      "stateMutability": "view"
    },
    {
      "type": "function",
      "name": "lastExecutionTime",
      "inputs": [],
      "outputs": [
        {
          "name": "",
          "type": "uint256",
          "internalType": "uint256"
        }
      ],
      "stateMutability": "view"
    },
    {
      "type": "function",
      "name": "nftContract",
      "inputs": [],
      "outputs": [
        {
          "name": "",
          "type": "address",
          "internalType": "contract IERC721"
        }
      ],
      "stateMutability": "view"
    },
    {
      "type": "function",
      "name": "owner",
      "inputs": [],
      "outputs": [
        {
          "name": "",
          "type": "address",
          "internalType": "address"
        }
      ],
      "stateMutability": "view"
    },
    {
      "type": "function",
      "name": "proposalCount",
      "inputs": [],
      "outputs": [
        {
          "name": "",
          "type": "uint256",
          "internalType": "uint256"
        }
      ],
      "stateMutability": "view"
    },
    {
      "type": "function",
      "name": "proposals",
      "inputs": [
        {
          "name": "",
          "type": "uint256",
          "internalType": "uint256"
        }
      ],
      "outputs": [
        {
          "name": "id",
          "type": "uint256",
          "internalType": "uint256"
        },
        {
          "name": "proposer",
          "type": "address",
          "internalType": "address"
        },
        {
          "name": "description",
          "type": "string",
          "internalType": "string"
        },
        {
          "name": "startTime",
          "type": "uint256",
          "internalType": "uint256"
        },
        {
          "name": "endTime",
          "type": "uint256",
          "internalType": "uint256"
        },
        {
          "name": "requestedAmount",
          "type": "uint256",
          "internalType": "uint256"
        },
        {
          "name": "totalVotes",
          "type": "uint256",
          "internalType": "uint256"
        },
        {
          "name": "executed",
          "type": "bool",
          "internalType": "bool"
        }
      ],
      "stateMutability": "view"
    },
    {
      "type": "function",
      "name": "removeWhitelist",
      "inputs": [
        {
          "name": "user",
          "type": "address",
          "internalType": "address"
        }
      ],
      "outputs": [],
      "stateMutability": "nonpayable"
    },
    {
      "type": "function",
      "name": "renounceOwnership",
      "inputs": [],
      "outputs": [],
      "stateMutability": "nonpayable"
    },
    {
      "type": "function",
      "name": "transferOwnership",
      "inputs": [
        {
          "name": "newOwner",
          "type": "address",
          "internalType": "address"
        }
      ],
      "outputs": [],
      "stateMutability": "nonpayable"
    },
    {
      "type": "function",
      "name": "vote",
      "inputs": [
        {
          "name": "proposalId",
          "type": "uint256",
          "internalType": "uint256"
        },
        {
          "name": "nftId",
          "type": "uint256",
          "internalType": "uint256"
        }
      ],
      "outputs": [],
      "stateMutability": "nonpayable"
    },
    {
      "type": "function",
      "name": "whitelist",
      "inputs": [
        {
          "name": "",
          "type": "address",
          "internalType": "address"
        }
      ],
      "outputs": [
        {
          "name": "",
          "type": "bool",
          "internalType": "bool"
        }
      ],
      "stateMutability": "view"
    },
    {
      "type": "event",
      "name": "OwnershipTransferred",
      "inputs": [
        {
          "name": "previousOwner",
          "type": "address",
          "indexed": true,
          "internalType": "address"
        },
        {
          "name": "newOwner",
          "type": "address",
          "indexed": true,
          "internalType": "address"
        }
      ],
      "anonymous": false
    },
    {
      "type": "event",
      "name": "ProposalCreated",
      "inputs": [
        {
          "name": "id",
          "type": "uint256",
          "indexed": false,
          "internalType": "uint256"
        },
        {
          "name": "proposer",
          "type": "address",
          "indexed": false,
          "internalType": "address"
        },
        {
          "name": "description",
          "type": "string",
          "indexed": false,
          "internalType": "string"
        },
        {
          "name": "requestedAmount",
          "type": "uint256",
          "indexed": false,
          "internalType": "uint256"
        }
      ],
      "anonymous": false
    },
    {
      "type": "event",
      "name": "ProposalDeclined",
      "inputs": [
        {
          "name": "id",
          "type": "uint256",
          "indexed": false,
          "internalType": "uint256"
        }
      ],
      "anonymous": false
    },
    {
      "type": "event",
      "name": "ProposalExecuted",
      "inputs": [
        {
          "name": "id",
          "type": "uint256",
          "indexed": false,
          "internalType": "uint256"
        }
      ],
      "anonymous": false
    },
    {
      "type": "event",
      "name": "Voted",
      "inputs": [
        {
          "name": "proposalId",
          "type": "uint256",
          "indexed": false,
          "internalType": "uint256"
        },
        {
          "name": "voter",
          "type": "address",
          "indexed": false,
          "internalType": "address"
        }
      ],
      "anonymous": false
    },
    {
      "type": "error",
      "name": "OwnableInvalidOwner",
      "inputs": [
        {
          "name": "owner",
          "type": "address",
          "internalType": "address"
        }
      ]
    },
    {
      "type": "error",
      "name": "OwnableUnauthorizedAccount",
      "inputs": [
        {
          "name": "account",
          "type": "address",
          "internalType": "address"
        }
      ]
    }
  ],
  "bytecode": {
    "object": "0x6080604052624f1a0060065534801561001757600080fd5b5060405161115c38038061115c833981016040819052610036916100df565b338061005c57604051631e4fbdf760e01b81526000600482015260240160405180910390fd5b6100658161008f565b50600280546001600160a01b0319166001600160a01b03929092169190911790554260055561010f565b600080546001600160a01b038381166001600160a01b0319831681178455604051919092169283917f8be0079c531659141344cd1fd0a4f28419497f9722a3daafe3b4186f6b6457e09190a35050565b6000602082840312156100f157600080fd5b81516001600160a01b038116811461010857600080fd5b9392505050565b61103e8061011e6000396000f3fe6080604052600436106100d55760003560e01c80639761f8ce11610079578063d56d229d11610056578063d56d229d14610251578063da35c66414610271578063f2fde38b14610287578063f80f5dd5146102a757005b80639761f8ce146101db5780639b19251a146101f1578063b384abef1461023157005b8063715018a6116100b2578063715018a61461015057806373b379bd1461016557806378c8cda7146101895780638da5cb5b146101a957005b8063013cf08b146100de578063135aaf7f1461011b57806335facf781461013057005b366100dc57005b005b3480156100ea57600080fd5b506100fe6100f9366004610c2a565b6102c7565b604051610112989796959493929190610c89565b60405180910390f35b34801561012757600080fd5b506100dc61039e565b34801561013c57600080fd5b506100dc61014b366004610cf7565b610704565b34801561015c57600080fd5b506100dc61084a565b34801561017157600080fd5b5061017b60055481565b604051908152602001610112565b34801561019557600080fd5b506100dc6101a4366004610dc7565b61085e565b3480156101b557600080fd5b506000546001600160a01b03165b6040516001600160a01b039091168152602001610112565b3480156101e757600080fd5b5061017b60065481565b3480156101fd57600080fd5b5061022161020c366004610dc7565b60046020526000908152604090205460ff1681565b6040519015158152602001610112565b34801561023d57600080fd5b506100dc61024c366004610deb565b610887565b34801561025d57600080fd5b506002546101c3906001600160a01b031681565b34801561027d57600080fd5b5061017b60015481565b34801561029357600080fd5b506100dc6102a2366004610dc7565b610b43565b3480156102b357600080fd5b506100dc6102c2366004610dc7565b610b81565b60036020526000908152604090208054600182015460028301805492936001600160a01b03909216926102f990610e0d565b80601f016020809104026020016040519081016040528092919081815260200182805461032590610e0d565b80156103725780601f1061034757610100808354040283529160200191610372565b820191906000526020600020905b81548152906001019060200180831161035557829003601f168201915b505050600384015460048501546005860154600787015460089097015495969295919450925060ff1688565b6006546005546103ae9190610e5d565b42101561040c5760405162461bcd60e51b815260206004820152602160248201527f457865637574696f6e20696e74657276616c20686173206e6f742070617373656044820152601960fa1b60648201526084015b60405180910390fd5b60008060008060005b600154811015610490576000818152600360205260409020600881015460ff161580156104455750858160070154115b1561045d576007810154815490969550939250610487565b600881015460ff161580156104755750848160070154115b15610487576007810154815490955092505b50600101610415565b5083156105875760008281526003602052604080822060088101805460ff19166001908117909155810154600582015492519193926001600160a01b03909116918381818185875af1925050503d8060008114610509576040519150601f19603f3d011682016040523d82523d6000602084013e61050e565b606091505b50509050806105515760405162461bcd60e51b815260206004820152600f60248201526e151c985b9cd9995c8819985a5b1959608a1b6044820152606401610403565b6040518481527f712ae1383f79ac853f8d882153778e0260ef8f03b504e2866e0593e04d2b291f9060200160405180910390a150505b821561067d5760008181526003602052604080822060088101805460ff19166001908117909155810154600582015492519193926001600160a01b03909116918381818185875af1925050503d80600081146105ff576040519150601f19603f3d011682016040523d82523d6000602084013e610604565b606091505b50509050806106475760405162461bcd60e51b815260206004820152600f60248201526e151c985b9cd9995c8819985a5b1959608a1b6044820152606401610403565b6040518381527f712ae1383f79ac853f8d882153778e0260ef8f03b504e2866e0593e04d2b291f9060200160405180910390a150505b60005b6001548110156106f9576000818152600360205260409020600881015460ff166106f05760088101805460ff1916600117905580546040517f4cf2797951877f41b38931a68643f9249273f32fd396532213aa4f1222c9d16b916106e79190815260200190565b60405180910390a15b50600101610680565b505042600555505050565b3360009081526004602052604090205460ff1661076f5760405162461bcd60e51b815260206004820152602360248201527f4e6f742077686974656c697374656420746f206372656174652070726f706f73604482015262616c7360e81b6064820152608401610403565b600180546000918261078083610e76565b9190505590506000426006546005546107999190610e5d565b6107a39190610e8f565b60008381526003602052604090208381556001810180546001600160a01b03191633179055909150600281016107d98682610ef1565b5042600382018190556107ed908390610e5d565b60048201556005810184905560088101805460ff191690556040517f98120a6aaa04295520ab4e01c6c1235dd316e822cc9ff31db7b3f197366d18bd9061083b908590339089908990610fb0565b60405180910390a15050505050565b610852610bad565b61085c6000610bda565b565b610866610bad565b6001600160a01b03166000908152600460205260409020805460ff19169055565b600082815260036020526040902054829081146108e65760405162461bcd60e51b815260206004820152601760248201527f50726f706f73616c20646f6573206e6f742065786973740000000000000000006044820152606401610403565b60008381526003602081905260409091209081015442101561094a5760405162461bcd60e51b815260206004820152601a60248201527f566f74696e6720686173206e6f742073746172746564207965740000000000006044820152606401610403565b806004015442111561099e5760405162461bcd60e51b815260206004820152601760248201527f566f74696e6720706572696f642068617320656e6465640000000000000000006044820152606401610403565b33600090815260068201602052604090205460ff16156109f95760405162461bcd60e51b8152602060048201526016602482015275165bdd481a185d9948185b1c9958591e481d9bdd195960521b6044820152606401610403565b6002546040516331a9108f60e11b81526004810185905233916001600160a01b031690636352211e90602401602060405180830381865afa158015610a42573d6000803e3d6000fd5b505050506040513d601f19601f82011682018060405250810190610a669190610feb565b6001600160a01b031614610abc5760405162461bcd60e51b815260206004820152601760248201527f596f7520646f206e6f74206f776e2074686973204e46540000000000000000006044820152606401610403565b6001816007016000828254610ad19190610e5d565b909155505033600081815260068301602052604090819020805460ff19166001179055517f030b0f8dcd86a031eddb071f91882edeac8173663ba775713b677b42b51be44b91610b35918791909182526001600160a01b0316602082015260400190565b60405180910390a150505050565b610b4b610bad565b6001600160a01b038116610b7557604051631e4fbdf760e01b815260006004820152602401610403565b610b7e81610bda565b50565b610b89610bad565b6001600160a01b03166000908152600460205260409020805460ff19166001179055565b6000546001600160a01b0316331461085c5760405163118cdaa760e01b8152336004820152602401610403565b600080546001600160a01b038381166001600160a01b0319831681178455604051919092169283917f8be0079c531659141344cd1fd0a4f28419497f9722a3daafe3b4186f6b6457e09190a35050565b600060208284031215610c3c57600080fd5b5035919050565b6000815180845260005b81811015610c6957602081850181015186830182015201610c4d565b506000602082860101526020601f19601f83011685010191505092915050565b8881526001600160a01b038816602082015261010060408201819052600090610cb490830189610c43565b606083019790975250608081019490945260a084019290925260c0830152151560e0909101529392505050565b634e487b7160e01b600052604160045260246000fd5b60008060408385031215610d0a57600080fd5b823567ffffffffffffffff811115610d2157600080fd5b8301601f81018513610d3257600080fd5b803567ffffffffffffffff811115610d4c57610d4c610ce1565b604051601f8201601f19908116603f0116810167ffffffffffffffff81118282101715610d7b57610d7b610ce1565b604052818152828201602001871015610d9357600080fd5b8160208401602083013760006020928201830152969401359450505050565b6001600160a01b0381168114610b7e57600080fd5b600060208284031215610dd957600080fd5b8135610de481610db2565b9392505050565b60008060408385031215610dfe57600080fd5b50508035926020909101359150565b600181811c90821680610e2157607f821691505b602082108103610e4157634e487b7160e01b600052602260045260246000fd5b50919050565b634e487b7160e01b600052601160045260246000fd5b80820180821115610e7057610e70610e47565b92915050565b600060018201610e8857610e88610e47565b5060010190565b81810381811115610e7057610e70610e47565b601f821115610eec57806000526020600020601f840160051c81016020851015610ec95750805b601f840160051c820191505b81811015610ee95760008155600101610ed5565b50505b505050565b815167ffffffffffffffff811115610f0b57610f0b610ce1565b610f1f81610f198454610e0d565b84610ea2565b6020601f821160018114610f535760008315610f3b5750848201515b600019600385901b1c1916600184901b178455610ee9565b600084815260208120601f198516915b82811015610f835787850151825560209485019460019092019101610f63565b5084821015610fa15786840151600019600387901b60f8161c191681555b50505050600190811b01905550565b8481526001600160a01b0384166020820152608060408201819052600090610fda90830185610c43565b905082606083015295945050505050565b600060208284031215610ffd57600080fd5b8151610de481610db256fea26469706673582212209a2d9ac8f6f98b6a7f6f0ea4a6bef43c573f935f92b83b3cabd990b00efe1b8c64736f6c634300081a0033",
    "linkReferences": {}
  },
  "methodIdentifiers": {
    "addWhitelist(address)": "f80f5dd5",
    "createProposal(string,uint256)": "35facf78",
    "executeProposals()": "135aaf7f",
    "executionInterval()": "9761f8ce",
    "lastExecutionTime()": "73b379bd",
    "nftContract()": "d56d229d",
    "owner()": "8da5cb5b",
    "proposalCount()": "da35c664",
    "proposals(uint256)": "013cf08b",
    "removeWhitelist(address)": "78c8cda7",
    "renounceOwnership()": "715018a6",
    "transferOwnership(address)": "f2fde38b",
    "vote(uint256,uint256)": "b384abef",
    "whitelist(address)": "9b19251a"
  },
  "id": 59
}