{
  "abi": [
    {
      "type": "constructor",
      "inputs": [],
      "stateMutability": "nonpayable"
    },
    {
      "type": "function",
      "name": "auctionInterval",
      "inputs": [],
      "outputs": [
        {
          "name": "",
          "type": "uint256",
          "internalType": "uint256"
        }
      ],
      "stateMutability": "view"
    },
    {
      "type": "function",
      "name": "auctions",
      "inputs": [
        {
          "name": "",
          "type": "uint256",
          "internalType": "uint256"
        }
      ],
      "outputs": [
        {
          "name": "highestBid",
          "type": "uint256",
          "internalType": "uint256"
        },
        {
          "name": "highestBidder",
          "type": "address",
          "internalType": "address"
        },
        {
          "name": "endBlock",
          "type": "uint256",
          "internalType": "uint256"
        },
        {
          "name": "active",
          "type": "bool",
          "internalType": "bool"
        }
      ],
      "stateMutability": "view"
    },
    {
      "type": "function",
      "name": "bid",
      "inputs": [
        {
          "name": "tokenId",
          "type": "uint256",
          "internalType": "uint256"
        }
      ],
      "outputs": [],
      "stateMutability": "payable"
    },
    {
      "type": "function",
      "name": "createAuction",
      "inputs": [],
      "outputs": [],
      "stateMutability": "nonpayable"
    },
    {
      "type": "function",
      "name": "endAuction",
      "inputs": [
        {
          "name": "tokenId",
          "type": "uint256",
          "internalType": "uint256"
        }
      ],
      "outputs": [],
      "stateMutability": "nonpayable"
    },
    {
      "type": "function",
      "name": "lastAuctionTime",
      "inputs": [],
      "outputs": [
        {
          "name": "",
          "type": "uint256",
          "internalType": "uint256"
        }
      ],
      "stateMutability": "view"
    },
    {
      "type": "function",
      "name": "nftContract",
      "inputs": [],
      "outputs": [
        {
          "name": "",
          "type": "address",
          "internalType": "contract IWarsawBikeNFT"
        }
      ],
      "stateMutability": "view"
    },
    {
      "type": "function",
      "name": "onERC721Received",
      "inputs": [
        {
          "name": "_operator",
          "type": "address",
          "internalType": "address"
        },
        {
          "name": "from",
          "type": "address",
          "internalType": "address"
        },
        {
          "name": "tokenId",
          "type": "uint256",
          "internalType": "uint256"
        },
        {
          "name": "data",
          "type": "bytes",
          "internalType": "bytes"
        }
      ],
      "outputs": [
        {
          "name": "",
          "type": "bytes4",
          "internalType": "bytes4"
        }
      ],
      "stateMutability": "nonpayable"
    },
    {
      "type": "function",
      "name": "owner",
      "inputs": [],
      "outputs": [
        {
          "name": "",
          "type": "address",
          "internalType": "address"
        }
      ],
      "stateMutability": "view"
    },
    {
      "type": "function",
      "name": "renounceOwnership",
      "inputs": [],
      "outputs": [],
      "stateMutability": "nonpayable"
    },
    {
      "type": "function",
      "name": "setNFTContract",
      "inputs": [
        {
          "name": "_contract",
          "type": "address",
          "internalType": "address"
        }
      ],
      "outputs": [],
      "stateMutability": "nonpayable"
    },
    {
      "type": "function",
      "name": "setTreasury",
      "inputs": [
        {
          "name": "_newTreasury",
          "type": "address",
          "internalType": "address"
        }
      ],
      "outputs": [],
      "stateMutability": "nonpayable"
    },
    {
      "type": "function",
      "name": "transferOwnership",
      "inputs": [
        {
          "name": "newOwner",
          "type": "address",
          "internalType": "address"
        }
      ],
      "outputs": [],
      "stateMutability": "nonpayable"
    },
    {
      "type": "function",
      "name": "treasury",
      "inputs": [],
      "outputs": [
        {
          "name": "",
          "type": "address",
          "internalType": "address"
        }
      ],
      "stateMutability": "view"
    },
    {
      "type": "event",
      "name": "AuctionCreated",
      "inputs": [
        {
          "name": "tokenId",
          "type": "uint256",
          "indexed": false,
          "internalType": "uint256"
        },
        {
          "name": "endBlock",
          "type": "uint256",
          "indexed": false,
          "internalType": "uint256"
        }
      ],
      "anonymous": false
    },
    {
      "type": "event",
      "name": "AuctionEnded",
      "inputs": [
        {
          "name": "tokenId",
          "type": "uint256",
          "indexed": false,
          "internalType": "uint256"
        },
        {
          "name": "winner",
          "type": "address",
          "indexed": false,
          "internalType": "address"
        },
        {
          "name": "amount",
          "type": "uint256",
          "indexed": false,
          "internalType": "uint256"
        }
      ],
      "anonymous": false
    },
    {
      "type": "event",
      "name": "NewBid",
      "inputs": [
        {
          "name": "tokenId",
          "type": "uint256",
          "indexed": false,
          "internalType": "uint256"
        },
        {
          "name": "bidder",
          "type": "address",
          "indexed": false,
          "internalType": "address"
        },
        {
          "name": "amount",
          "type": "uint256",
          "indexed": false,
          "internalType": "uint256"
        }
      ],
      "anonymous": false
    },
    {
      "type": "event",
      "name": "OwnershipTransferred",
      "inputs": [
        {
          "name": "previousOwner",
          "type": "address",
          "indexed": true,
          "internalType": "address"
        },
        {
          "name": "newOwner",
          "type": "address",
          "indexed": true,
          "internalType": "address"
        }
      ],
      "anonymous": false
    },
    {
      "type": "error",
      "name": "OwnableInvalidOwner",
      "inputs": [
        {
          "name": "owner",
          "type": "address",
          "internalType": "address"
        }
      ]
    },
    {
      "type": "error",
      "name": "OwnableUnauthorizedAccount",
      "inputs": [
        {
          "name": "account",
          "type": "address",
          "internalType": "address"
        }
      ]
    }
  ],
  "bytecode": {
    "object": "0x608060405262015180600355348015601657600080fd5b503380603c57604051631e4fbdf760e01b81526000600482015260240160405180910390fd5b6043816048565b506098565b600080546001600160a01b038381166001600160a01b0319831681178455604051919092169283917f8be0079c531659141344cd1fd0a4f28419497f9722a3daafe3b4186f6b6457e09190a35050565b610b73806100a76000396000f3fe6080604052600436106100dd5760003560e01c8063a7ccabdf1161007f578063d56d229d11610059578063d56d229d146102a0578063f0f44260146102c0578063f2fde38b146102e0578063f58114471461030057600080fd5b8063a7ccabdf1461024a578063b9a2de3a1461026a578063ce79a7c31461028a57600080fd5b8063571a26a0116100bb578063571a26a01461016557806361d027b3146101df578063715018a6146102175780638da5cb5b1461022c57600080fd5b8063150b7a02146100e2578063170112181461012c578063454a2ab314610150575b600080fd5b3480156100ee57600080fd5b5061010e6100fd366004610a0a565b630a85bd0160e11b95945050505050565b6040516001600160e01b031990911681526020015b60405180910390f35b34801561013857600080fd5b5061014260025481565b604051908152602001610123565b61016361015e366004610aa7565b610315565b005b34801561017157600080fd5b506101b5610180366004610aa7565b600160208190526000918252604090912080549181015460028201546003909201546001600160a01b03909116919060ff1684565b604080519485526001600160a01b0390931660208501529183015215156060820152608001610123565b3480156101eb57600080fd5b506005546101ff906001600160a01b031681565b6040516001600160a01b039091168152602001610123565b34801561022357600080fd5b5061016361047f565b34801561023857600080fd5b506000546001600160a01b03166101ff565b34801561025657600080fd5b50610163610265366004610ac0565b610493565b34801561027657600080fd5b50610163610285366004610aa7565b6104bd565b34801561029657600080fd5b5061014260035481565b3480156102ac57600080fd5b506004546101ff906001600160a01b031681565b3480156102cc57600080fd5b506101636102db366004610ac0565b6106f3565b3480156102ec57600080fd5b506101636102fb366004610ac0565b61071d565b34801561030c57600080fd5b5061016361075b565b60008181526001602052604090206002810154431061036f5760405162461bcd60e51b8152602060048201526011602482015270105d58dd1a5bdb881a185cc8195b991959607a1b60448201526064015b60405180910390fd5b805434116103d75760405162461bcd60e51b815260206004820152602f60248201527f426964206d75737420626520686967686572207468616e20746865206375727260448201526e195b9d081a1a59da195cdd08189a59608a1b6064820152608401610366565b80541561041d57600181015481546040516001600160a01b039092169181156108fc0291906000818181858888f1935050505015801561041b573d6000803e3d6000fd5b505b348082556001820180546001600160a01b031916339081179091556040805185815260208101929092528101919091527f558a0d5d5468d74b0db24c74eb348b42271c2ebb4c9e953ced38aaed95fa4361906060015b60405180910390a15050565b610487610971565b610491600061099e565b565b61049b610971565b600480546001600160a01b0319166001600160a01b0392909216919091179055565b6000818152600160205260409020600281015443101561051f5760405162461bcd60e51b815260206004820152601860248201527f41756374696f6e206973207374696c6c206f6e676f696e6700000000000000006044820152606401610366565b600381015460ff166105735760405162461bcd60e51b815260206004820152601860248201527f41756374696f6e20697320616c726561647920656e64656400000000000000006044820152606401610366565b60038101805460ff1916905580541561067f576004805460018301546040516323b872dd60e01b815230938101939093526001600160a01b0390811660248401526044830185905216906323b872dd90606401600060405180830381600087803b1580156105e057600080fd5b505af11580156105f4573d6000803e3d6000fd5b505060055483546040516001600160a01b03909216935080156108fc029250906000818181858888f19350505050158015610633573d6000803e3d6000fd5b5060018101548154604080518581526001600160a01b0390931660208401528201527fd2aa34a4fdbbc6dff6a3e56f46e0f3ae2a31d7785ff3487aa5c95c642acea50190606001610473565b600480546005546040516323b872dd60e01b815230938101939093526001600160a01b0390811660248401526044830185905216906323b872dd90606401600060405180830381600087803b1580156106d757600080fd5b505af11580156106eb573d6000803e3d6000fd5b505050505050565b6106fb610971565b600580546001600160a01b0319166001600160a01b0392909216919091179055565b610725610971565b6001600160a01b03811661074f57604051631e4fbdf760e01b815260006004820152602401610366565b6107588161099e565b50565b6003546107689042610af8565b600254106107b85760405162461bcd60e51b815260206004820152601a60248201527f4e6f7420612074696d6520666f72206e65772061756374696f6e0000000000006044820152606401610366565b6004805460408051636902622f60e11b815230938101939093526024830152600060448301526001600160a01b03169063d204c45e90606401600060405180830381600087803b15801561080b57600080fd5b505af115801561081f573d6000803e3d6000fd5b505050506000600460009054906101000a90046001600160a01b03166001600160a01b03166318160ddd6040518163ffffffff1660e01b8152600401602060405180830381865afa158015610878573d6000803e3d6000fd5b505050506040513d601f19601f8201168201806040525081019061089c9190610b11565b905060405180608001604052806000815260200160006001600160a01b03168152602001600354436108ce9190610b2a565b8152600160209182018190526000848152818352604090819020845181558484015192810180546001600160a01b0319166001600160a01b039094169390931790925583810151600283018190556060909401516003909201805460ff1916921515929092179091558051848152918201929092527fe00a2da3a0f34a566402a244ab7ec63f8ab7472591cb18edf3269aa00461a410910160405180910390a150565b6000546001600160a01b031633146104915760405163118cdaa760e01b8152336004820152602401610366565b600080546001600160a01b038381166001600160a01b0319831681178455604051919092169283917f8be0079c531659141344cd1fd0a4f28419497f9722a3daafe3b4186f6b6457e09190a35050565b80356001600160a01b0381168114610a0557600080fd5b919050565b600080600080600060808688031215610a2257600080fd5b610a2b866109ee565b9450610a39602087016109ee565b935060408601359250606086013567ffffffffffffffff811115610a5c57600080fd5b8601601f81018813610a6d57600080fd5b803567ffffffffffffffff811115610a8457600080fd5b886020828401011115610a9657600080fd5b959894975092955050506020019190565b600060208284031215610ab957600080fd5b5035919050565b600060208284031215610ad257600080fd5b610adb826109ee565b9392505050565b634e487b7160e01b600052601160045260246000fd5b81810381811115610b0b57610b0b610ae2565b92915050565b600060208284031215610b2357600080fd5b5051919050565b80820180821115610b0b57610b0b610ae256fea264697066735822122076c1d61e250f03cdb2535e442e992d3b9615caf89f93440f3abcdea00a23a78364736f6c634300081a0033",
    "linkReferences": {}
  },
  "methodIdentifiers": {
    "auctionInterval()": "ce79a7c3",
    "auctions(uint256)": "571a26a0",
    "bid(uint256)": "454a2ab3",
    "createAuction()": "f5811447",
    "endAuction(uint256)": "b9a2de3a",
    "lastAuctionTime()": "17011218",
    "nftContract()": "d56d229d",
    "onERC721Received(address,address,uint256,bytes)": "150b7a02",
    "owner()": "8da5cb5b",
    "renounceOwnership()": "715018a6",
    "setNFTContract(address)": "a7ccabdf",
    "setTreasury(address)": "f0f44260",
    "transferOwnership(address)": "f2fde38b",
    "treasury()": "61d027b3"
  },
  "id": 58
}